:020000040000FA
:060000001EEF04F01200E7
:020006000000F8
:0600080007EF00F01200FA
:02000E00DACF47
:10001000E4FFE2CFDAFFD8C0E4FFD9C0E4FFDAC0E2
:10002000E4FFDBC0E4FFE6520001D651D71103E044
:10003000D607000ED75BD351010B046E8150080B1D
:1000400001E0010E041811E0CF07CF510DE181A6A8
:1000500006D0020ED411D46FD381CF6905D0010E22
:10006000D411D46FD391CF6901D0CF69D351020B92
:1000700001E0010E046E8250020B01E0010E041833
:1000800011E0D007D0510DE182A206D0100ED4119C
:10009000D46FD383D06905D0080ED411D46FD39315
:1000A000D06901D0D069D351040B01E0010E046E78
:1000B0008250040B01E0010E041811E0D107D15168
:1000C0000DE182A406D0800ED411D46FD385D169FE
:1000D00005D0400ED411D46FD395D16901D0D16928
:1000E000D351080B01E0010E046E8150400B01E07A
:1000F000010E041811E0D207D2510DE181AC06D0F7
:10010000D451040ED513D387D26905D0D451020E31
:10011000D513D397D26901D0D2699E92E552E5CF2B
:10012000DBF0E5CFDAF0E5CFD9F0E5CFD8F0E5CFD9
:10013000DAFF1100A06A9D6AD36A9B6AD26AD16A0B
:10014000D06A3F0E926E806A2F0E926E9368816A1B
:100150003F0E936E9468826A100EAB6E060EAC6E04
:10016000400EB86E190EAF6EAB8EAC8AAECFCEF02D
:10017000AECFCEF0010EC26E160EC16EB90EC06EBD
:10018000A26A9F6AA16A9E6AF26A800EF16EF06AA4
:10019000F18E0001D86BD96BDA6BDB6B9D0EE66ECE
:1001A000DEEC03F0E552F28EF28C8188809812002A
:1001B000C1DFA4DA0001D451D51101E102D1D4513B
:1001C000080B25E0010EE66EE66ABDD9E552E55260
:1001D0000001CC6FE668800EE66E000EE66E100E33
:1001E000E66E010EE66ED9D9026E050EE15E025092
:1001F000800EE66E000EE66ECCC0E6FF04DAE55235
:10020000E552E552000E0001D415D46FD56BD451E0
:10021000100B25E0010EE66EE66A95D9E552E5522F
:100220000001CC6FE668800EE66E000EE66E360EBC
:10023000E66E010EE66EB1D9026E050EE15E025069
:10024000800EE66E000EE66ECCC0E6FFDCD9E5520D
:10025000E552E552000E0001D415D46FD56BD45190
:10026000200B2EE082A20FD0E668800EE66E000E14
:10027000E66E820EE66E010EE66E8FD9026E050EF8
:10028000E15E02500ED0E668800EE66E000EE66E6D
:100290005C0EE66E010EE66E80D9026E050EE15E22
:1002A0000250800EE66E000EE66ECDC0E6FFABD9C2
:1002B000E552E552E552000E0001D415D46FD56B1E
:1002C000D451400B25E0020EE66EE66A3CD9E552B9
:1002D000E5520001CC6FE668800EE66E000EE66E19
:1002E000A80EE66E010EE66E58D9026E050EE15EAE
:1002F0000250800EE66E000EE66ECCC0E6FF83D99B
:10030000E552E552E552000E0001D415D46FD56BCD
:10031000D451800B25E0020EE66EE66A14D9E55250
:10032000E5520001CC6FE668800EE66E000EE66EC8
:10033000CE0EE66E010EE66E30D9026E050EE15E5F
:100340000250800EE66E000EE66ECCC0E6FF5BD972
:10035000E552E552E552000E0001D415D46FD56B7D
:10036000D551010B2EE082A40FD0E668800EE66E18
:10037000000EE66E1A0EE66E020EE66E0ED9026EE4
:10038000050EE15E02500ED0E668800EE66E000EAD
:10039000E66EF40EE66E010EE66EFFD8026E050EF6
:1003A000E15E0250800EE66E000EE66ECDC0E6FF06
:1003B0002AD9E552E552E552000E0001D415D46F5A
:1003C000D56BF8D61200D9CFE6FFE1CFD9FFACA2AA
:1003D000FED7FD0EDBCFF6FFFE0EDBCFF7FF0800EA
:1003E000F55009E0FD0EDBCFF6FFFE0EDBCFF7FF89
:1003F0000800F550AD6EFD0EDBCFF6FFDB2AFE0EDA
:10040000DBCFF7FF01E3DB2A0800F550E0E1E5521E
:10041000E7CFD9FF1200D9CFE6FFE1CFD9FFACA2D9
:10042000FED7FD0EDBCFE9FFFE0EDBCFEAFFEF507C
:1004300008E0FD0EDBCFE9FFFE0EDBCFEAFFEF5059
:10044000AD6EFD0EDBCFE9FFDB2AFE0EDBCFEAFF50
:1004500001E3DB2AEF50E3E1E552E7CFD9FF1200D9
:10046000D9CFE6FFE1CFD9FFFD0EDBCF02F0FE0EC4
:10047000DBCF03F003C002F0036A030E0214AA6E7E
:10048000FF0EE76EFD0EDBCF02F0FE0EDBCF03F0BA
:10049000E7500216036A0250A96EFC0EDB50A86EEC
:1004A000A69EA69CA684F29E550EA76EAA0EA76EC7
:1004B000A682F28EA1A8FED7A198A694E552E7CF16
:1004C000D9FF1200D9CFE6FFE1CFD9FF020EE12616
:1004D000FB0EDBCFE6FFFC0EDBCFE6FF2CEC04F0DF
:1004E000E552E552010EF3CFDBFFDF6A010EDB5070
:1004F000DF5C1FE2DF50E76EFB0EDBCFE9FFFC0E97
:10050000DBCFEAFFE750E926000EEA22EF50E66E65
:10051000FD0EDBCFE6FFFE0EDBCFE6FFA1DFE552EF
:10052000E552E552FD0EDB2AFE0E01E3DB2ADF2A4F
:10053000DDD7020EE15C02E2E16AE552E16EE552CE
:10054000E7CFD9FF1200D9CFE6FFE1CFD9FFE652BE
:10055000FD0EDBCF02F0FE0EDBCF03F003C002F096
:10056000036A030E0214AA6EFF0EE76EFD0EDBCFC8
:1005700002F0FE0EDBCF03F0E7500216036A0250D2
:10058000A96EA69EA69CA680A850DF6EDF5000D064
:10059000E552E552E7CFD9FF1200D9CFE6FFE1CF10
:1005A000D9FF020EE126DF6A010EDB6AFA0EDB508C
:1005B000DF5C1FE0FD0EDBCFE6FFFE0EDBCFE6FFCC
:1005C000C2DFE552E552DF6EFB0EDBCFE9FFFC0E2A
:1005D000DBCFEAFFDFCFEFFFFD0EDB2AFE0E01E3EC
:1005E000DB2AFB0EDB2AFC0E01E3DB2A010EDB2AF1
:1005F000DDD7020EE15C02E2E16AE552E16EE5520E
:10060000E7CFD9FF1200D9CFE6FFE1CFD9FF020E25
:10061000E126818C818E0001CE6B080ECE5D64E2F6
:10062000FE0EDBA056D00E0ECE03F350080FDE6E8A
:10063000DD6AE668A60EE66E000EE66EDECFE6FF29
:10064000DDCFE6FFAADF026E050EE15E0250F20E7C
:10065000E66E070EE66EB7DEE552E552FC0EE66E7C
:10066000070EE66EB0DEE552E552A60EE66E000E0F
:10067000E66ED1DEE552E552FC0EE66E070EE66E42
:10068000A2DEE552E552FE0EE66E070EE66E9BDE3A
:10069000E552E552640E0001D66FD76BD651D711E3
:1006A00001E0FCD7FC0EDBCFE6FFFD0EDBCFE6FF63
:1006B000B2DEE552E552000EE66E080EE66E83DE0F
:1006C000E552E5520001D669D76BD651D71101E04A
:1006D000FCD7FE0EDBCFF3FFF390F342F3CFDBFF4B
:1006E000819C819ECE2B99D7020EE15C02E2E16AE9
:1006F000E552E16EE552E7CFD9FF120081BA0ED084
:100700000001F40ED66F010ED76F81BA06D0809823
:0E071000D651D71101E101D0F8D78088120030
:02071E00060EC5
:10072000F66E000EF76E000EF86E00010900F5502F
:10073000E56F0900F550E66F03E1E56701D03DD0B4
:100740000900F550E06F0900F550E16F0900F55020
:10075000E26F09000900F550E96E0900F550EA6EF4
:10076000090009000900F550E36F0900F550E46F36
:1007700009000900F6CFE7F0F7CFE8F0F8CFE9F08D
:10078000E0C0F6FFE1C0F7FFE2C0F8FF0001E3536D
:1007900002E1E45307E00900F550EE6EE307F8E2EA
:1007A000E407F9D7E7C0F6FFE8C0F7FFE9C0F8FFB4
:0C07B0000001E507000EE65BBFD7120059
:0407BC00D9CFE6FFAC
:1007C000DACFE6FFE1CFD9FFE2CFDAFFFD0EDB5053
:1007D000FB0BCA6ECC6A9E92FD0EDBAE02D09D82F0
:1007E00001D09D92CA84E552E5CFDAFFE7CFD9FF69
:0207F0001200F5
:0E07F2000D41542B434D47533D0022000D0096
:100800001A007465737A7420757A656E6574002BAE
:0C081000333633303536303132303400AE
:04081C00800EF36EE9
:1008200000EE00F00F0E01D81200EA6002D0EE6A6E
:0C083000FCD7F350E9601200EE6AFCD720
:04083C001EEE00F0BC
:100840002EEE00F0F86A019C8FEC03F03AEC04F015
:08085000D8EC00F0FBD7120008
:08085800FE0EE3CFE9FFFF0EE5
:10086000E3CFEAFFF36AF46AEE5203E0F34AF42AB4
:04087000FBD71200A0
:02087400120070
:020000040030CA
:0100010002FC
:010002001EDF
:010003001EDE
:010005008179
:010006008178
:010008000FE8
:01000900C036
:01000A000FE6
:01000B00E014
:01000C000FE4
:01000D0040B2
:00000001FF
