:020000040000FA
:060000001EEF04F01200E7
:020006001200E6
:060008000EEF00F01200F3
:02000E000100EF
:0C001000580800008F01000005000000EF
:04001C00DACFE4FF54
:10002000E2CFDAFF7FC1E4FF80C1E4FF81C1E4FFDA
:1000300082C1E4FFE65201017D517E1103E07D079C
:10004000000E7E5B01019051911103E09007000EBC
:10005000915B01018351020B01E0010E026E82509F
:10006000020B01E0010E02180DE07A077A5109E156
:1000700082A204D0838F83837A6903D0838D839394
:100080007A6901D07A699E92E552E5CF82F1E5CF97
:1000900081F1E5CF80F1E5CF7FF1E5CFDAFF110007
:1000A000A06A9D6AD36A9B6AD26AD16AD06A806A62
:1000B0002F0E926E816A3F0E936E9468826A100EC4
:1000C000AB6E060EAC6E400EB86E190EAF6EAB8EF8
:1000D000AC8AAECF78F1AECF78F1010EC26E160EBB
:1000E000C16EB90EC06EA26A9F6AA16A9E6AF26A68
:1000F000800EF16EF06AF18E01017F6B806B816B77
:10010000826B9D0EE66EF3EC03F0E55201018399DC
:10011000849184930101906B916B0101839D839F76
:10012000F28EF28C81888098818E1200B9DF16DA07
:1001300081AA14DAABA202D0AB98AB889E50200BF8
:1001400001E1F4D001018351100B01E0EFD08451A3
:10015000040B01E0EBD001018F51030A01E1A2D0B1
:10016000010A01E17BD0030A55E0010A01E0BCD09D
:100170002B0EAE5C09E19051911106E1140E906FC7
:10018000916B926B936B45D09051911142E0040EAC
:10019000921901E1935134E0030E921901E1935158
:1001A00027E0020E921901E193511AE0010E921913
:1001B00001E193510DE0925101E1935101E095D09D
:1001C000430EAE5C04E1010E926F936B22D08DD092
:1001D0004D0EAE5C04E1020E926F936B1AD085D087
:1001E000540EAE5C04E1030E926F936B12D07DD07F
:1001F0003A0EAE5C04E1040E926F936B0AD075D098
:10020000200EAE5C05E1010E8F6F0101786B01D00D
:100210006CD06AD09051911120E001017851EA6AC6
:10022000000FE96E010EEA22AECFEFFF7851EA6AC5
:10023000000FE96E010EEA22EF502C0808E10F0EC4
:10024000785D05E10101020E8F6F0101786B785135
:100250000F0801E24AD0782B47D047D09051911136
:1002600020E001017851EA6A280FE96E010EEA22C6
:10027000AECFEFFF7851EA6A280FE96E010EEA224D
:10028000EF500A0808E1180E785D05E10101030E40
:100290008F6F0101786B7851180801E226D0782B16
:1002A00023D023D0905191111EE001017851EA6AC8
:1002B000500FE96E010EEA22AECFEFFF7851EA6AE5
:1002C000500FE96E010EEA22EF500D0805E1838917
:1002D0000101906B916B8F6B01017851060801E26F
:1002E00004D0782B01D001D021D00101906B916B0B
:1002F0008F6B0101786B1E0E785D17E27851EA6A08
:10030000000FE96E010EEA22EF6A7851EA6A280FBF
:10031000E96E010EEA22EF6A7851EA6A500FE96E3F
:10032000010EEA22EF6A782BE6D78399010183A9AF
:1003300084D08481010E786F0D0E785D15E27851BE
:10034000F76AE60FF66E060EF7220800F5CF03F007
:100350007851EA6A000FE96E010EEA22EF50035C61
:1003600001E08491782BE8D78483010E786F050E25
:10037000785D15E27851F76AF50FF66E060EF722F2
:100380000800F5CF03F07851EA6A500FE96E010ECC
:10039000EA22EF50035C01E08493782BE8D7845184
:1003A000010B2FE08451020B2CE08351100B29E04C
:1003B00083A313D0818C460EE66E060EE66E69D8D6
:1003C000E552E5520101E80E7D6F030E7E6F7D510F
:1003D0007E1101E0FCD7819C12D0818C940EE66ED8
:1003E000060EE66E56D8E552E5520101E80E7D6F25
:1003F000030E7E6F7D517E1101E0FCD7819C8491BC
:100400008493786B1E0E785D17E27851EA6A000FCC
:10041000E96E010EEA22EF6A7851EA6A280FE96E66
:10042000010EEA22EF6A7851EA6A500FE96E010E76
:10043000EA22EF6A782BE6D7839983AD13D0818CBB
:10044000839D090EE66E060EE66E23D8E552E55250
:100450000101E80E7D6F030E7E6F7D517E1101E07C
:10046000FCD7819C83AF13D0818C839FCA0EE66E2C
:10047000050EE66E0ED8E552E5520101E80E7D6FDD
:10048000030E7E6F7D517E1101E0FCD7819C50D61A
:100490001200D9CFE6FFE1CFD9FF010184850A0E12
:1004A00001017D6F7E6B7D517E1101E0FCD7ACA216
:1004B000FED7FD0EDBCFF6FFFE0EDBCFF7FF080009
:1004C000F55009E0FD0EDBCFF6FFFE0EDBCFF7FFA8
:1004D0000800F550AD6EFD0EDBCFF6FFDB2AFE0EF9
:1004E000DBCFF7FF01E3DB2A0800F550D8E101017B
:1004F0008495E552E7CFD9FF1200D9CFE6FFE1CFCF
:10050000D9FF010184850A0E01017D6F7E6B7D514B
:100510007E1101E0FCD7ACA2FED7FD0EDBCFE9FFD8
:10052000FE0EDBCFEAFFEF5008E0FD0EDBCFE9FF68
:10053000FE0EDBCFEAFFEF50AD6EFD0EDBCFE9FF25
:10054000DB2AFE0EDBCFEAFF01E3DB2AEF50DBE123
:1005500001018495E552E7CFD9FF120081BA0BD093
:1005600080980101200E7D6F030E7E6F7D517E11FC
:1005700001E0FCD78088819E0101880E7D6F130EFB
:100580007E6F7D517E1101E0FCD7818C070EE66EF7
:10059000070EE66E7EDFE552E552FB0EE66E060EB6
:1005A000E66E77DFE552E552350EE66E070EE66E33
:1005B00070DFE552E552210EE66E070EE66E69DF4A
:0A05C000E552E552819C818E120085
:0605CA000D41542B434DCE
:1005D00047533D222B3336333035363031323034C9
:1005E000220D5345204E6575726F204D523A2061A1
:1005F000206B6F6D70726573737A6F7220656C69B2
:100600006E64756C742E201A000D41542B434D47B7
:10061000533D222B333633303536303132303422AD
:100620000D5345204E6575726F204D523A20612062
:100630006B6F6D70726573737A6F72206C65616C2D
:100640006C742E201A000D41542B434D47533D220C
:100650002B3336333035363031323034220D53457A
:10066000204E6575726F204D522074617666656C00
:10067000756779656C6574206F6B2C2061206B6FDA
:100680006D70726573737A6F7220757A656D656CC3
:100690002E201A000D41542B434D47533D222B333E
:1006A00036333035363031323034220D5345204E1A
:1006B0006575726F204D522074617666656C756742
:1006C00079656C6574206F6B2C2061206B6F6D7089
:1006D000726573737A6F72204E454D20757A656D21
:1006E000656C2E201A00222B3336333035363031EC
:1006F00032303422002041736466000D41542B4394
:100700004D47463D310D000D41540D41540D4154AE
:100710000D41540D41542B4950523D393630300D66
:10072000000D41542657300D000D41542B434D47C9
:10073000443D310D000D41542B434E4D493D322C6B
:07074000322C302C300D00BB
:080748000E0EF66E000EF76EB6
:10075000000EF86E01010900F5508A6F0900F5508E
:100760008B6F03E18A6701D03DD00900F550856F9A
:100770000900F550866F0900F550876F09000900E0
:10078000F550E96E0900F550EA6E0900090009000C
:10079000F550886F0900F550896F09000900F6CF00
:1007A0008CF1F7CF8DF1F8CF8EF185C1F6FF86C1C0
:1007B000F7FF87C1F8FF0101885302E1895307E081
:1007C0000900F550EE6E8807F8E28907F9D78CC169
:1007D000F6FF8DC1F7FF8EC1F8FF01018A07000EF9
:0607E0008B5BBFD7120085
:0A07E600D9CFE6FFDACFE6FFE1CF3E
:1007F000D9FFE2CFDAFFFD0EDB50FB0BCA6ECC6AED
:100800009E92FD0EDBAE02D09D8201D09D92CA84E5
:0C081000E552E5CFDAFFE7CFD9FF120078
:04081C00800EF36EE9
:1008200000EE00F00F0E01D81200EA6002D0EE6A6E
:0C083000FCD7F350E9601200EE6AFCD720
:04083C001EEE00F0BC
:100840002EEE00F0F86A019CA4EC03F003EC00F03B
:0808500096EC00F0FBD712004A
:0508580000000000009B
:020000040030CA
:0100010002FC
:010002001EDF
:010003001EDE
:010005008179
:010006008178
:010008000FE8
:01000900C036
:01000A000FE6
:01000B00E014
:01000C000FE4
:01000D0040B2
:00000001FF
