:020000040000FA
:06000000AFEF04F0120056
:020006001200E6
:060008000EEF00F01200F3
:02000E000100EF
:0C0010007A0900009101000007000000C8
:04001C00DACFE4FF54
:10002000E2CFDAFF83C1E4FF84C1E4FF85C1E4FFCE
:1000300086C1E4FFE65201018151821103E081078C
:10004000000E825B01019151921103E09107000EB5
:10005000925B01017D51020B01E0010E026E8250A4
:10006000020B01E0010E02180DE07A077A5109E156
:1000700082A204D07D8F7D837A6903D07D8D7D93AC
:100080007A6901D07A697D51040B01E0010E026E9C
:100090008250040B01E0010E021811E07B077B5136
:1000A0000DE182A406D0800E7F117F6F7D857B6974
:1000B00005D0400E7F117F6F7D957B6901D07B69F4
:1000C0007D51080B01E0010E026E8150400B01E0F2
:1000D000010E021811E07C077C510DE181AC06D0C5
:1000E0007F51040E80137D877C6905D07F51020EFD
:1000F00080137D977C6901D07C699E92E552E5CFA3
:1001000086F1E5CF85F1E5CF84F1E5CF83F1E5CF49
:10011000DAFF1100A06A9D6AD36A9B6AD26AD16A2B
:10012000D06A3F0E926E806A2F0E926E9368816A3B
:100130003F0E936E9468826A100EAB6E060EAC6E24
:10014000400EB86E190EAF6EAB8EAC8AAECF78F1A2
:10015000AECF78F1010EC26E160EC16EB90EC06E32
:10016000A26A9F6AA16A9E6AF26A800EF16EF06AC4
:10017000F18E0101836B846B856B866B9D0EE66E41
:1001800084EC04F0E55201017D99F28EF28C8188B5
:100190008098818E1200BEDF819E818C700EE66E8B
:1001A000060EE66EE4D9E552E552640EE66E060EE2
:1001B000E66EDDD9E552E5528A0EE66E060EE66E73
:1001C000D6D9E552E552819C818E01017D9D7D9FAE
:1001D000ABA202D0AB98AB889E50200B01E146D178
:1001E0007D51100B01E042D17E51800B01E03ED1E8
:1001F000ACA2FED7610EAD6E030E0101931901E1B1
:10020000945101E1E0D0020E931901E1945101E112
:100210009FD0010E931901E194516DE0935101E1DA
:10022000945101E0F1D02B0EAE5C0EE19151921190
:100230000BE1200E916F4E0E926F956B966BACA2F8
:10024000FED7620EAD6E52D0915192114FE0ACA22A
:10025000FED7630EAD6E040E0101951901E19651B2
:1002600034E0030E951901E1965127E0020E95192D
:1002700001E196511AE0010E951901E196510DE048
:10028000955101E1965101E0C4D0430EAE5C04E10A
:10029000010E956F966B2AD0BCD04D0EAE5C04E17A
:1002A000020E956F966B22D0B4D0540EAE5C04E172
:1002B000030E956F966B1AD0ACD03A0EAE5C04E18B
:1002C000040E956F966B12D0A4D0200EAE5C0DE19B
:1002D000010E936F946B0101786BACA2FED77A0E7E
:1002E000AD6E0101030E976F01D093D0ACA2FED783
:1002F000640EAD6E89D0ACA2FED7650EAD6E010165
:100300009151921124E0ACA2FED7660EAD6E0101B0
:100310007851EA6A000FE96E010EEA22AECFEFFFD4
:100320007851EA6A000FE96E010EEA22EF502C08BC
:1003300007E10F0E785D04E1020E0101936F946BEB
:10034000010178510F0801E264D0782B5DD061D0B3
:100350000101786B0F0E785D0DE2ACA2FED70101B2
:100360007851EA6A000FE96E010EEA22EF50AD6E95
:10037000782BF0D701019151921124E001017851BD
:10038000EA6A280FE96E010EEA22AECFEFFF010103
:10039000050E976F01017851EA6A280FE96E010E88
:1003A000EA22EF500A0807E1170E785D04E1030E18
:1003B0000101936F946B01017851170801E229D074
:1003C000782B22D026D0915192111DE00101785155
:1003D000EA6A500FE96E010EEA22AECFEFFF01018B
:1003E000060E976F01017851EA6A500FE96E010E0F
:1003F000EA22EF500A0801E17D897851140801E2F0
:1004000008D0782B01D005D0ACA2FED76D0EAD6E12
:100410002DD0ACA2FED7300E01019525AD6E916BAB
:10042000926B936B946B0101786B190E785D17E2F8
:100430007851EA6A000FE96E010EEA22EF6A7851FC
:10044000EA6A280FE96E010EEA22EF6A7851EA6A39
:10045000500FE96E010EEA22EF6A782BE6D7610EA3
:10046000E66E080EE66E83D8E552E55201017DA9DD
:100470004BD07DAB07D0400EE66E080EE66E77D807
:10048000E552E55201017D8B010E786F0D0E785D0E
:1004900015E27851F76A400FF66E080EF722080051
:1004A000F5CF03F07851EA6A000FE96E010EEA22F7
:1004B000EF50035C01E07D9B782BE8D77DAB07D044
:1004C0004F0EE66E080EE66E52D8E552E552010177
:1004D000786B190E785D17E27851EA6A000FE96EC1
:1004E000010EEA22EF6A7851EA6A280FE96E010EDE
:1004F000EA22EF6A7851EA6A500FE96E010EEA22A9
:10050000EF6A782BE6D77D997DAD13D0818C7D9DE8
:10051000720EE66E070EE66E2AD8E552E55201012C
:10052000E80E816F030E826F8151821101E0FCD7CA
:10053000819C7DAF13D0818C7D9F380EE66E070EB7
:10054000E66E15D8E552E5520101E80E816F030E03
:10055000826F8151821101E0FCD7819C7F51200B79
:1005600004E0000E7F157F6F806B32D61200D9CF6A
:10057000E6FFE1CFD9FF01017E8F0A0E816F826B0A
:100580008151821101E0FCD7ACA2FED7FD0EDBCF7A
:10059000F6FFFE0EDBCFF7FF0800F55009E0FD0E79
:1005A000DBCFF6FFFE0EDBCFF7FF0800F550AD6E98
:1005B000FD0EDBCFF6FFDB2AFE0EDBCFF7FF01E3FC
:1005C000DB2A0800F550D7E101017E9FE552E7CF15
:1005D000D9FF1200D9CFE6FFE1CFD9FF01017E8F0D
:1005E0000A0E816F826B8151821101E0FCD7ACA2AF
:1005F000FED7FD0EDBCFE9FFFE0EDBCFEAFFEF50AB
:1006000008E0FD0EDBCFE9FFFE0EDBCFEAFFEF5087
:10061000AD6EFD0EDBCFE9FFDB2AFE0EDBCFEAFF7E
:1006200001E3DB2AEF50DAE101017E9FE552E7CFDB
:10063000D9FF1200ABA202D0AB98AB88AE5000D06D
:10064000120081BA0ED00101F40E816F010E826F8B
:1006500081BA06D080988151821101E101D0F8D78A
:04066000808812007C
:0C0664000D41542B434D47463D310D0025
:100670000D41540D41540D41540D41540D41542B25
:100680004950523D393630300D000D415426573017
:100690000D000D41542B434D47443D310D000D419C
:1006A000542B434D47533D222B33363330353630B0
:1006B000313230220D4F52464920534D53206B7535
:1006C0006C646F2062656B617063736F6C61732E15
:1006D0002041206B6F6D70726573737A6F72207535
:1006E0007A656D656C2E201A000D41542B434D47E1
:1006F000533D222B33363330353630313230220DF4
:100700004F52464920534D53206B756C646F2062E5
:10071000656B617063736F6C61732E2041206B6F2A
:100720006D70726573737A6F72204E454D20757AC5
:10073000656D656C2E201A000D41542B434D4753B7
:100740003D222B33363330353630313230220D4FA7
:10075000524649204D523A2061206B6F6D70726590
:1007600073737A6F7220656C696E64756C742E2079
:100770001A000D41542B434D47533D222B33363342
:1007800030353630313230220D4F524649204D52ED
:100790003A2061206B6F6D70726573737A6F72208F
:1007A0006C65616C6C742E201A000D41542B434D06
:1007B00047533D222B3336333035363031323022F9
:1007C0000D4F524649204D522074617666656C7516
:1007D0006779656C6574206F6B2C2061206B6F6D81
:1007E00070726573737A6F7220757A656D656C2EA1
:1007F000201A000D41542B434D47533D222B3336D5
:100800003330353630313230220D4F524649204D8B
:10081000522074617666656C756779656C657420C5
:100820006F6B2C2061206B6F6D70726573737A6FC4
:1008300072204E454D20757A656D656C2E201A002C
:10084000222B333633303536303132303422007497
:10085000656C737A616D207374696D6D656C0D0ADA
:0A0860000069676E6F72650D0A00F3
:06086A000E0EF66E000EFA
:10087000F76E000EF86E01010900F5508C6F09004B
:10088000F5508D6F03E18C6701D03DD00900F55024
:10089000876F0900F550886F0900F550896F0900CE
:1008A0000900F550E96E0900F550EA6E09000900EB
:1008B0000900F5508A6F0900F5508B6F0900090097
:1008C000F6CF8EF1F7CF8FF1F8CF90F187C1F6FF19
:1008D00088C1F7FF89C1F8FF01018A5302E18B53F8
:1008E00007E00900F550EE6E8A07F8E28B07F9D7AA
:1008F0008EC1F6FF8FC1F7FF90C1F8FF01018C0791
:08090000000E8D5BBFD7120051
:08090800D9CFE6FFDACFE6FFCC
:10091000E1CFD9FFE2CFDAFFFD0EDB50FB0BCA6E51
:10092000CC6A9E92FD0EDBAE02D09D8201D09D92DC
:0E093000CA84E552E5CFDAFFE7CFD9FF120007
:02093E00800E29
:10094000F36E00EE00F00F0E01D81200EA6002D044
:0E095000EE6AFCD7F350E9601200EE6AFCD7A5
:02095E001EEE8B
:1009600000F02EEE00F0F86A019C35EC04F003EC88
:0A09700000F0CBEC00F0FBD7120002
:06097A0000000000000077
:010980000076
:020000040030CA
:0100010002FC
:010002001EDF
:010003001EDE
:010005008179
:010006008178
:010008000FE8
:01000900C036
:01000A000FE6
:01000B00E014
:01000C000FE4
:01000D0040B2
:00000001FF
